{
  "contractName": "Land",
  "abi": [
    {
      "inputs": [
        {
          "internalType": "string",
          "name": "_name",
          "type": "string"
        },
        {
          "internalType": "string",
          "name": "_symbol",
          "type": "string"
        },
        {
          "internalType": "uint256",
          "name": "_cost",
          "type": "uint256"
        }
      ],
      "stateMutability": "nonpayable",
      "type": "constructor"
    },
    {
      "anonymous": false,
      "inputs": [
        {
          "indexed": true,
          "internalType": "address",
          "name": "owner",
          "type": "address"
        },
        {
          "indexed": true,
          "internalType": "address",
          "name": "approved",
          "type": "address"
        },
        {
          "indexed": true,
          "internalType": "uint256",
          "name": "tokenId",
          "type": "uint256"
        }
      ],
      "name": "Approval",
      "type": "event"
    },
    {
      "anonymous": false,
      "inputs": [
        {
          "indexed": true,
          "internalType": "address",
          "name": "owner",
          "type": "address"
        },
        {
          "indexed": true,
          "internalType": "address",
          "name": "operator",
          "type": "address"
        },
        {
          "indexed": false,
          "internalType": "bool",
          "name": "approved",
          "type": "bool"
        }
      ],
      "name": "ApprovalForAll",
      "type": "event"
    },
    {
      "anonymous": false,
      "inputs": [
        {
          "indexed": true,
          "internalType": "address",
          "name": "from",
          "type": "address"
        },
        {
          "indexed": true,
          "internalType": "address",
          "name": "to",
          "type": "address"
        },
        {
          "indexed": true,
          "internalType": "uint256",
          "name": "tokenId",
          "type": "uint256"
        }
      ],
      "name": "Transfer",
      "type": "event"
    },
    {
      "inputs": [
        {
          "internalType": "address",
          "name": "to",
          "type": "address"
        },
        {
          "internalType": "uint256",
          "name": "tokenId",
          "type": "uint256"
        }
      ],
      "name": "approve",
      "outputs": [],
      "stateMutability": "nonpayable",
      "type": "function"
    },
    {
      "inputs": [
        {
          "internalType": "address",
          "name": "owner",
          "type": "address"
        }
      ],
      "name": "balanceOf",
      "outputs": [
        {
          "internalType": "uint256",
          "name": "",
          "type": "uint256"
        }
      ],
      "stateMutability": "view",
      "type": "function",
      "constant": true
    },
    {
      "inputs": [
        {
          "internalType": "uint256",
          "name": "",
          "type": "uint256"
        }
      ],
      "name": "buildings",
      "outputs": [
        {
          "internalType": "string",
          "name": "name",
          "type": "string"
        },
        {
          "internalType": "address",
          "name": "owner",
          "type": "address"
        },
        {
          "internalType": "int256",
          "name": "posX",
          "type": "int256"
        },
        {
          "internalType": "int256",
          "name": "posY",
          "type": "int256"
        },
        {
          "internalType": "int256",
          "name": "posZ",
          "type": "int256"
        },
        {
          "internalType": "int256",
          "name": "sizeX",
          "type": "int256"
        },
        {
          "internalType": "int256",
          "name": "sizeY",
          "type": "int256"
        },
        {
          "internalType": "int256",
          "name": "sizeZ",
          "type": "int256"
        }
      ],
      "stateMutability": "view",
      "type": "function",
      "constant": true
    },
    {
      "inputs": [
        {
          "internalType": "uint256",
          "name": "tokenId",
          "type": "uint256"
        }
      ],
      "name": "getApproved",
      "outputs": [
        {
          "internalType": "address",
          "name": "",
          "type": "address"
        }
      ],
      "stateMutability": "view",
      "type": "function",
      "constant": true
    },
    {
      "inputs": [],
      "name": "initialCost",
      "outputs": [
        {
          "internalType": "uint256",
          "name": "",
          "type": "uint256"
        }
      ],
      "stateMutability": "view",
      "type": "function",
      "constant": true
    },
    {
      "inputs": [
        {
          "internalType": "address",
          "name": "owner",
          "type": "address"
        },
        {
          "internalType": "address",
          "name": "operator",
          "type": "address"
        }
      ],
      "name": "isApprovedForAll",
      "outputs": [
        {
          "internalType": "bool",
          "name": "",
          "type": "bool"
        }
      ],
      "stateMutability": "view",
      "type": "function",
      "constant": true
    },
    {
      "inputs": [],
      "name": "maxSupply",
      "outputs": [
        {
          "internalType": "uint256",
          "name": "",
          "type": "uint256"
        }
      ],
      "stateMutability": "view",
      "type": "function",
      "constant": true
    },
    {
      "inputs": [],
      "name": "name",
      "outputs": [
        {
          "internalType": "string",
          "name": "",
          "type": "string"
        }
      ],
      "stateMutability": "view",
      "type": "function",
      "constant": true
    },
    {
      "inputs": [
        {
          "internalType": "uint256",
          "name": "tokenId",
          "type": "uint256"
        }
      ],
      "name": "ownerOf",
      "outputs": [
        {
          "internalType": "address",
          "name": "",
          "type": "address"
        }
      ],
      "stateMutability": "view",
      "type": "function",
      "constant": true
    },
    {
      "inputs": [
        {
          "internalType": "address",
          "name": "from",
          "type": "address"
        },
        {
          "internalType": "address",
          "name": "to",
          "type": "address"
        },
        {
          "internalType": "uint256",
          "name": "tokenId",
          "type": "uint256"
        }
      ],
      "name": "safeTransferFrom",
      "outputs": [],
      "stateMutability": "nonpayable",
      "type": "function"
    },
    {
      "inputs": [
        {
          "internalType": "address",
          "name": "from",
          "type": "address"
        },
        {
          "internalType": "address",
          "name": "to",
          "type": "address"
        },
        {
          "internalType": "uint256",
          "name": "tokenId",
          "type": "uint256"
        },
        {
          "internalType": "bytes",
          "name": "_data",
          "type": "bytes"
        }
      ],
      "name": "safeTransferFrom",
      "outputs": [],
      "stateMutability": "nonpayable",
      "type": "function"
    },
    {
      "inputs": [
        {
          "internalType": "address",
          "name": "operator",
          "type": "address"
        },
        {
          "internalType": "bool",
          "name": "approved",
          "type": "bool"
        }
      ],
      "name": "setApprovalForAll",
      "outputs": [],
      "stateMutability": "nonpayable",
      "type": "function"
    },
    {
      "inputs": [
        {
          "internalType": "bytes4",
          "name": "interfaceId",
          "type": "bytes4"
        }
      ],
      "name": "supportsInterface",
      "outputs": [
        {
          "internalType": "bool",
          "name": "",
          "type": "bool"
        }
      ],
      "stateMutability": "view",
      "type": "function",
      "constant": true
    },
    {
      "inputs": [],
      "name": "symbol",
      "outputs": [
        {
          "internalType": "string",
          "name": "",
          "type": "string"
        }
      ],
      "stateMutability": "view",
      "type": "function",
      "constant": true
    },
    {
      "inputs": [
        {
          "internalType": "uint256",
          "name": "tokenId",
          "type": "uint256"
        }
      ],
      "name": "tokenURI",
      "outputs": [
        {
          "internalType": "string",
          "name": "",
          "type": "string"
        }
      ],
      "stateMutability": "view",
      "type": "function",
      "constant": true
    },
    {
      "inputs": [],
      "name": "totalSupply",
      "outputs": [
        {
          "internalType": "uint256",
          "name": "",
          "type": "uint256"
        }
      ],
      "stateMutability": "view",
      "type": "function",
      "constant": true
    },
    {
      "inputs": [
        {
          "internalType": "uint256",
          "name": "_id",
          "type": "uint256"
        }
      ],
      "name": "mint",
      "outputs": [],
      "stateMutability": "payable",
      "type": "function",
      "payable": true
    },
    {
      "inputs": [
        {
          "internalType": "address",
          "name": "from",
          "type": "address"
        },
        {
          "internalType": "address",
          "name": "to",
          "type": "address"
        },
        {
          "internalType": "uint256",
          "name": "tokenId",
          "type": "uint256"
        }
      ],
      "name": "transferFrom",
      "outputs": [],
      "stateMutability": "nonpayable",
      "type": "function"
    },
    {
      "inputs": [],
      "name": "getBuildings",
      "outputs": [
        {
          "components": [
            {
              "internalType": "string",
              "name": "name",
              "type": "string"
            },
            {
              "internalType": "address",
              "name": "owner",
              "type": "address"
            },
            {
              "internalType": "int256",
              "name": "posX",
              "type": "int256"
            },
            {
              "internalType": "int256",
              "name": "posY",
              "type": "int256"
            },
            {
              "internalType": "int256",
              "name": "posZ",
              "type": "int256"
            },
            {
              "internalType": "int256",
              "name": "sizeX",
              "type": "int256"
            },
            {
              "internalType": "int256",
              "name": "sizeY",
              "type": "int256"
            },
            {
              "internalType": "int256",
              "name": "sizeZ",
              "type": "int256"
            }
          ],
          "internalType": "struct Land.Building[]",
          "name": "",
          "type": "tuple[]"
        }
      ],
      "stateMutability": "view",
      "type": "function",
      "constant": true
    },
    {
      "inputs": [
        {
          "internalType": "uint256",
          "name": "_buildingId",
          "type": "uint256"
        }
      ],
      "name": "getBuilding",
      "outputs": [
        {
          "components": [
            {
              "internalType": "string",
              "name": "name",
              "type": "string"
            },
            {
              "internalType": "address",
              "name": "owner",
              "type": "address"
            },
            {
              "internalType": "int256",
              "name": "posX",
              "type": "int256"
            },
            {
              "internalType": "int256",
              "name": "posY",
              "type": "int256"
            },
            {
              "internalType": "int256",
              "name": "posZ",
              "type": "int256"
            },
            {
              "internalType": "int256",
              "name": "sizeX",
              "type": "int256"
            },
            {
              "internalType": "int256",
              "name": "sizeY",
              "type": "int256"
            },
            {
              "internalType": "int256",
              "name": "sizeZ",
              "type": "int256"
            }
          ],
          "internalType": "struct Land.Building",
          "name": "",
          "type": "tuple"
        }
      ],
      "stateMutability": "view",
      "type": "function",
      "constant": true
    }
  ],
  "bytecode": "0x6080604052670de0b6b3a7640000600655600560075560006008553480156200002757600080fd5b5060405162003e9e38038062003e9e83398181016040528101906200004d919062000a20565b828281600090805190602001906200006792919062000798565b5080600190805190602001906200008092919062000798565b5050508060068190555060096040518061010001604052806040518060400160405280600781526020017f56696c6c616765000000000000000000000000000000000000000000000000008152508152602001600073ffffffffffffffffffffffffffffffffffffffff168152602001600081526020016000815260200160008152602001600a8152602001600a8152602001600a815250908060018154018082558091505060019003906000526020600020906008020160009091909190915060008201518160000190805190602001906200015f92919062000798565b5060208201518160010160006101000a81548173ffffffffffffffffffffffffffffffffffffffff021916908373ffffffffffffffffffffffffffffffffffffffff16021790555060408201518160020155606082015181600301556080820151816004015560a0820151816005015560c0820151816006015560e08201518160070155505060096040518061010001604052806040518060400160405280600481526020017f5061726b000000000000000000000000000000000000000000000000000000008152508152602001600073ffffffffffffffffffffffffffffffffffffffff16815260200160008152602001600a815260200160008152602001600a815260200160058152602001600381525090806001815401808255809150506001900390600052602060002090600802016000909190919091506000820151816000019080519060200190620002ba92919062000798565b5060208201518160010160006101000a81548173ffffffffffffffffffffffffffffffffffffffff021916908373ffffffffffffffffffffffffffffffffffffffff16021790555060408201518160020155606082015181600301556080820151816004015560a0820151816005015560c0820151816006015560e08201518160070155505060096040518061010001604052806040518060400160405280600481526020017f43697479000000000000000000000000000000000000000000000000000000008152508152602001600073ffffffffffffffffffffffffffffffffffffffff168152602001600081526020017ffffffffffffffffffffffffffffffffffffffffffffffffffffffffffffffff6815260200160008152602001600a8152602001600581526020016003815250908060018154018082558091505060019003906000526020600020906008020160009091909190915060008201518160000190805190602001906200043492919062000798565b5060208201518160010160006101000a81548173ffffffffffffffffffffffffffffffffffffffff021916908373ffffffffffffffffffffffffffffffffffffffff16021790555060408201518160020155606082015181600301556080820151816004015560a0820151816005015560c0820151816006015560e08201518160070155505060096040518061010001604052806040518060400160405280600c81526020017f4576656e747320506c617a6100000000000000000000000000000000000000008152508152602001600073ffffffffffffffffffffffffffffffffffffffff168152602001600a8152602001600081526020016000815260200160058152602001601981526020016005815250908060018154018082558091505060019003906000526020600020906008020160009091909190915060008201518160000190805190602001906200058f92919062000798565b5060208201518160010160006101000a81548173ffffffffffffffffffffffffffffffffffffffff021916908373ffffffffffffffffffffffffffffffffffffffff16021790555060408201518160020155606082015181600301556080820151816004015560a0820151816005015560c0820151816006015560e08201518160070155505060096040518061010001604052806040518060400160405280600681526020017f43616d70757300000000000000000000000000000000000000000000000000008152508152602001600073ffffffffffffffffffffffffffffffffffffffff1681526020017ffffffffffffffffffffffffffffffffffffffffffffffffffffffffffffffff68152602001600081526020016000815260200160058152602001601981526020016005815250908060018154018082558091505060019003906000526020600020906008020160009091909190915060008201518160000190805190602001906200070992919062000798565b5060208201518160010160006101000a81548173ffffffffffffffffffffffffffffffffffffffff021916908373ffffffffffffffffffffffffffffffffffffffff16021790555060408201518160020155606082015181600301556080820151816004015560a0820151816005015560c0820151816006015560e08201518160070155505050505062000b1f565b828054620007a69062000ae9565b90600052602060002090601f016020900481019282620007ca576000855562000816565b82601f10620007e557805160ff191683800117855562000816565b8280016001018555821562000816579182015b8281111562000815578251825591602001919060010190620007f8565b5b50905062000825919062000829565b5090565b5b80821115620008445760008160009055506001016200082a565b5090565b6000604051905090565b600080fd5b600080fd5b600080fd5b600080fd5b6000601f19601f8301169050919050565b7f4e487b7100000000000000000000000000000000000000000000000000000000600052604160045260246000fd5b620008b18262000866565b810181811067ffffffffffffffff82111715620008d357620008d262000877565b5b80604052505050565b6000620008e862000848565b9050620008f68282620008a6565b919050565b600067ffffffffffffffff82111562000919576200091862000877565b5b620009248262000866565b9050602081019050919050565b60005b838110156200095157808201518184015260208101905062000934565b8381111562000961576000848401525b50505050565b60006200097e6200097884620008fb565b620008dc565b9050828152602081018484840111156200099d576200099c62000861565b5b620009aa84828562000931565b509392505050565b600082601f830112620009ca57620009c96200085c565b5b8151620009dc84826020860162000967565b91505092915050565b6000819050919050565b620009fa81620009e5565b811462000a0657600080fd5b50565b60008151905062000a1a81620009ef565b92915050565b60008060006060848603121562000a3c5762000a3b62000852565b5b600084015167ffffffffffffffff81111562000a5d5762000a5c62000857565b5b62000a6b86828701620009b2565b935050602084015167ffffffffffffffff81111562000a8f5762000a8e62000857565b5b62000a9d86828701620009b2565b925050604062000ab08682870162000a09565b9150509250925092565b7f4e487b7100000000000000000000000000000000000000000000000000000000600052602260045260246000fd5b6000600282049050600182168062000b0257607f821691505b6020821081141562000b195762000b1862000aba565b5b50919050565b61336f8062000b2f6000396000f3fe60806040526004361061011f5760003560e01c806395d89b41116100a0578063b88d4fde11610064578063b88d4fde14610405578063c87b56dd1461042e578063d5abeb011461046b578063d9cf6a2614610496578063e985e9c5146104c15761011f565b806395d89b411461032d5780639b4f1ecb146103585780639dfd8b0214610383578063a0712d68146103c0578063a22cb465146103dc5761011f565b806323b872dd116100e757806323b872dd1461021d57806342842e0e146102465780634c96a0621461026f5780636352211e146102b357806370a08231146102f05761011f565b806301ffc9a71461012457806306fdde0314610161578063081812fc1461018c578063095ea7b3146101c957806318160ddd146101f2575b600080fd5b34801561013057600080fd5b5061014b60048036038101906101469190611ef4565b6104fe565b6040516101589190611f3c565b60405180910390f35b34801561016d57600080fd5b506101766105e0565b6040516101839190611ff0565b60405180910390f35b34801561019857600080fd5b506101b360048036038101906101ae9190612048565b610672565b6040516101c091906120b6565b60405180910390f35b3480156101d557600080fd5b506101f060048036038101906101eb91906120fd565b6106f7565b005b3480156101fe57600080fd5b5061020761080f565b604051610214919061214c565b60405180910390f35b34801561022957600080fd5b50610244600480360381019061023f9190612167565b610815565b005b34801561025257600080fd5b5061026d60048036038101906102689190612167565b6108e5565b005b34801561027b57600080fd5b5061029660048036038101906102919190612048565b610905565b6040516102aa9897969594939291906121d3565b60405180910390f35b3480156102bf57600080fd5b506102da60048036038101906102d59190612048565b610a05565b6040516102e791906120b6565b60405180910390f35b3480156102fc57600080fd5b5061031760048036038101906103129190612258565b610ab7565b604051610324919061214c565b60405180910390f35b34801561033957600080fd5b50610342610b6f565b60405161034f9190611ff0565b60405180910390f35b34801561036457600080fd5b5061036d610c01565b60405161037a919061214c565b60405180910390f35b34801561038f57600080fd5b506103aa60048036038101906103a59190612048565b610c07565b6040516103b7919061239d565b60405180910390f35b6103da60048036038101906103d59190612048565b610d74565b005b3480156103e857600080fd5b5061040360048036038101906103fe91906123eb565b610ebc565b005b34801561041157600080fd5b5061042c60048036038101906104279190612560565b610ed2565b005b34801561043a57600080fd5b5061045560048036038101906104509190612048565b610f34565b6040516104629190611ff0565b60405180910390f35b34801561047757600080fd5b50610480610fdb565b60405161048d919061214c565b60405180910390f35b3480156104a257600080fd5b506104ab610fe1565b6040516104b89190612755565b60405180910390f35b3480156104cd57600080fd5b506104e860048036038101906104e39190612777565b611165565b6040516104f59190611f3c565b60405180910390f35b60007f80ac58cd000000000000000000000000000000000000000000000000000000007bffffffffffffffffffffffffffffffffffffffffffffffffffffffff1916827bffffffffffffffffffffffffffffffffffffffffffffffffffffffff191614806105c957507f5b5e139f000000000000000000000000000000000000000000000000000000007bffffffffffffffffffffffffffffffffffffffffffffffffffffffff1916827bffffffffffffffffffffffffffffffffffffffffffffffffffffffff1916145b806105d957506105d8826111f9565b5b9050919050565b6060600080546105ef906127e6565b80601f016020809104026020016040519081016040528092919081815260200182805461061b906127e6565b80156106685780601f1061063d57610100808354040283529160200191610668565b820191906000526020600020905b81548152906001019060200180831161064b57829003601f168201915b5050505050905090565b600061067d82611263565b6106bc576040517f08c379a00000000000000000000000000000000000000000000000000000000081526004016106b39061288a565b60405180910390fd5b6004600083815260200190815260200160002060009054906101000a900473ffffffffffffffffffffffffffffffffffffffff169050919050565b600061070282610a05565b90508073ffffffffffffffffffffffffffffffffffffffff168373ffffffffffffffffffffffffffffffffffffffff161415610773576040517f08c379a000000000000000000000000000000000000000000000000000000000815260040161076a9061291c565b60405180910390fd5b8073ffffffffffffffffffffffffffffffffffffffff166107926112cf565b73ffffffffffffffffffffffffffffffffffffffff1614806107c157506107c0816107bb6112cf565b611165565b5b610800576040517f08c379a00000000000000000000000000000000000000000000000000000000081526004016107f7906129ae565b60405180910390fd5b61080a83836112d7565b505050565b60085481565b6108266108206112cf565b82611390565b610865576040517f08c379a000000000000000000000000000000000000000000000000000000000815260040161085c90612a40565b60405180910390fd5b8160096001836108759190612a8f565b8154811061088657610885612ac3565b5b906000526020600020906008020160010160006101000a81548173ffffffffffffffffffffffffffffffffffffffff021916908373ffffffffffffffffffffffffffffffffffffffff1602179055506108e083838361146e565b505050565b61090083838360405180602001604052806000815250610ed2565b505050565b6009818154811061091557600080fd5b9060005260206000209060080201600091509050806000018054610938906127e6565b80601f0160208091040260200160405190810160405280929190818152602001828054610964906127e6565b80156109b15780601f10610986576101008083540402835291602001916109b1565b820191906000526020600020905b81548152906001019060200180831161099457829003601f168201915b5050505050908060010160009054906101000a900473ffffffffffffffffffffffffffffffffffffffff16908060020154908060030154908060040154908060050154908060060154908060070154905088565b6000806002600084815260200190815260200160002060009054906101000a900473ffffffffffffffffffffffffffffffffffffffff169050600073ffffffffffffffffffffffffffffffffffffffff168173ffffffffffffffffffffffffffffffffffffffff161415610aae576040517f08c379a0000000000000000000000000000000000000000000000000000000008152600401610aa590612b64565b60405180910390fd5b80915050919050565b60008073ffffffffffffffffffffffffffffffffffffffff168273ffffffffffffffffffffffffffffffffffffffff161415610b28576040517f08c379a0000000000000000000000000000000000000000000000000000000008152600401610b1f90612bf6565b60405180910390fd5b600360008373ffffffffffffffffffffffffffffffffffffffff1673ffffffffffffffffffffffffffffffffffffffff168152602001908152602001600020549050919050565b606060018054610b7e906127e6565b80601f0160208091040260200160405190810160405280929190818152602001828054610baa906127e6565b8015610bf75780601f10610bcc57610100808354040283529160200191610bf7565b820191906000526020600020905b815481529060010190602001808311610bda57829003601f168201915b5050505050905090565b60065481565b610c0f611e2d565b6009600183610c1e9190612a8f565b81548110610c2f57610c2e612ac3565b5b906000526020600020906008020160405180610100016040529081600082018054610c59906127e6565b80601f0160208091040260200160405190810160405280929190818152602001828054610c85906127e6565b8015610cd25780601f10610ca757610100808354040283529160200191610cd2565b820191906000526020600020905b815481529060010190602001808311610cb557829003601f168201915b505050505081526020016001820160009054906101000a900473ffffffffffffffffffffffffffffffffffffffff1673ffffffffffffffffffffffffffffffffffffffff1673ffffffffffffffffffffffffffffffffffffffff16815260200160028201548152602001600382015481526020016004820154815260200160058201548152602001600682015481526020016007820154815250509050919050565b60006008549050600754811115610d8a57600080fd5b600073ffffffffffffffffffffffffffffffffffffffff166009600184610db19190612a8f565b81548110610dc257610dc1612ac3565b5b906000526020600020906008020160010160009054906101000a900473ffffffffffffffffffffffffffffffffffffffff1673ffffffffffffffffffffffffffffffffffffffff1614610e1457600080fd5b670de0b6b3a7640000341015610e2957600080fd5b336009600184610e399190612a8f565b81548110610e4a57610e49612ac3565b5b906000526020600020906008020160010160006101000a81548173ffffffffffffffffffffffffffffffffffffffff021916908373ffffffffffffffffffffffffffffffffffffffff1602179055506001600854610ea89190612c16565b600881905550610eb833836116d5565b5050565b610ece610ec76112cf565b83836116f3565b5050565b610ee3610edd6112cf565b83611390565b610f22576040517f08c379a0000000000000000000000000000000000000000000000000000000008152600401610f1990612cde565b60405180910390fd5b610f2e84848484611860565b50505050565b6060610f3f82611263565b610f7e576040517f08c379a0000000000000000000000000000000000000000000000000000000008152600401610f7590612d70565b60405180910390fd5b6000610f886118bc565b90506000815111610fa85760405180602001604052806000815250610fd3565b80610fb2846118d3565b604051602001610fc3929190612dcc565b6040516020818303038152906040525b915050919050565b60075481565b60606009805480602002602001604051908101604052809291908181526020016000905b8282101561115c578382906000526020600020906008020160405180610100016040529081600082018054611039906127e6565b80601f0160208091040260200160405190810160405280929190818152602001828054611065906127e6565b80156110b25780601f10611087576101008083540402835291602001916110b2565b820191906000526020600020905b81548152906001019060200180831161109557829003601f168201915b505050505081526020016001820160009054906101000a900473ffffffffffffffffffffffffffffffffffffffff1673ffffffffffffffffffffffffffffffffffffffff1673ffffffffffffffffffffffffffffffffffffffff168152602001600282015481526020016003820154815260200160048201548152602001600582015481526020016006820154815260200160078201548152505081526020019060010190611005565b50505050905090565b6000600560008473ffffffffffffffffffffffffffffffffffffffff1673ffffffffffffffffffffffffffffffffffffffff16815260200190815260200160002060008373ffffffffffffffffffffffffffffffffffffffff1673ffffffffffffffffffffffffffffffffffffffff16815260200190815260200160002060009054906101000a900460ff16905092915050565b60007f01ffc9a7000000000000000000000000000000000000000000000000000000007bffffffffffffffffffffffffffffffffffffffffffffffffffffffff1916827bffffffffffffffffffffffffffffffffffffffffffffffffffffffff1916149050919050565b60008073ffffffffffffffffffffffffffffffffffffffff166002600084815260200190815260200160002060009054906101000a900473ffffffffffffffffffffffffffffffffffffffff1673ffffffffffffffffffffffffffffffffffffffff1614159050919050565b600033905090565b816004600083815260200190815260200160002060006101000a81548173ffffffffffffffffffffffffffffffffffffffff021916908373ffffffffffffffffffffffffffffffffffffffff160217905550808273ffffffffffffffffffffffffffffffffffffffff1661134a83610a05565b73ffffffffffffffffffffffffffffffffffffffff167f8c5be1e5ebec7d5bd14f71427d1e84f3dd0314c0f7b2291e5b200ac8c7c3b92560405160405180910390a45050565b600061139b82611263565b6113da576040517f08c379a00000000000000000000000000000000000000000000000000000000081526004016113d190612e62565b60405180910390fd5b60006113e583610a05565b90508073ffffffffffffffffffffffffffffffffffffffff168473ffffffffffffffffffffffffffffffffffffffff16148061145457508373ffffffffffffffffffffffffffffffffffffffff1661143c84610672565b73ffffffffffffffffffffffffffffffffffffffff16145b8061146557506114648185611165565b5b91505092915050565b8273ffffffffffffffffffffffffffffffffffffffff1661148e82610a05565b73ffffffffffffffffffffffffffffffffffffffff16146114e4576040517f08c379a00000000000000000000000000000000000000000000000000000000081526004016114db90612ef4565b60405180910390fd5b600073ffffffffffffffffffffffffffffffffffffffff168273ffffffffffffffffffffffffffffffffffffffff161415611554576040517f08c379a000000000000000000000000000000000000000000000000000000000815260040161154b90612f86565b60405180910390fd5b61155f838383611a34565b61156a6000826112d7565b6001600360008573ffffffffffffffffffffffffffffffffffffffff1673ffffffffffffffffffffffffffffffffffffffff16815260200190815260200160002060008282546115ba9190612a8f565b925050819055506001600360008473ffffffffffffffffffffffffffffffffffffffff1673ffffffffffffffffffffffffffffffffffffffff16815260200190815260200160002060008282546116119190612c16565b92505081905550816002600083815260200190815260200160002060006101000a81548173ffffffffffffffffffffffffffffffffffffffff021916908373ffffffffffffffffffffffffffffffffffffffff160217905550808273ffffffffffffffffffffffffffffffffffffffff168473ffffffffffffffffffffffffffffffffffffffff167fddf252ad1be2c89b69c2b068fc378daa952ba7f163c4a11628f55a4df523b3ef60405160405180910390a46116d0838383611a39565b505050565b6116ef828260405180602001604052806000815250611a3e565b5050565b8173ffffffffffffffffffffffffffffffffffffffff168373ffffffffffffffffffffffffffffffffffffffff161415611762576040517f08c379a000000000000000000000000000000000000000000000000000000000815260040161175990612ff2565b60405180910390fd5b80600560008573ffffffffffffffffffffffffffffffffffffffff1673ffffffffffffffffffffffffffffffffffffffff16815260200190815260200160002060008473ffffffffffffffffffffffffffffffffffffffff1673ffffffffffffffffffffffffffffffffffffffff16815260200190815260200160002060006101000a81548160ff0219169083151502179055508173ffffffffffffffffffffffffffffffffffffffff168373ffffffffffffffffffffffffffffffffffffffff167f17307eab39ab6107e8899845ad3d59bd9653f200f220920489ca2b5937696c31836040516118539190611f3c565b60405180910390a3505050565b61186b84848461146e565b61187784848484611a99565b6118b6576040517f08c379a00000000000000000000000000000000000000000000000000000000081526004016118ad90613084565b60405180910390fd5b50505050565b606060405180602001604052806000815250905090565b6060600082141561191b576040518060400160405280600181526020017f30000000000000000000000000000000000000000000000000000000000000008152509050611a2f565b600082905060005b6000821461194d578080611936906130a4565b915050600a82611946919061311c565b9150611923565b60008167ffffffffffffffff81111561196957611968612435565b5b6040519080825280601f01601f19166020018201604052801561199b5781602001600182028036833780820191505090505b5090505b60008514611a28576001826119b49190612a8f565b9150600a856119c3919061314d565b60306119cf9190612c16565b60f81b8183815181106119e5576119e4612ac3565b5b60200101907effffffffffffffffffffffffffffffffffffffffffffffffffffffffffffff1916908160001a905350600a85611a21919061311c565b945061199f565b8093505050505b919050565b505050565b505050565b611a488383611c30565b611a556000848484611a99565b611a94576040517f08c379a0000000000000000000000000000000000000000000000000000000008152600401611a8b90613084565b60405180910390fd5b505050565b6000611aba8473ffffffffffffffffffffffffffffffffffffffff16611e0a565b15611c23578373ffffffffffffffffffffffffffffffffffffffff1663150b7a02611ae36112cf565b8786866040518563ffffffff1660e01b8152600401611b0594939291906131d3565b602060405180830381600087803b158015611b1f57600080fd5b505af1925050508015611b5057506040513d601f19601f82011682018060405250810190611b4d9190613234565b60015b611bd3573d8060008114611b80576040519150601f19603f3d011682016040523d82523d6000602084013e611b85565b606091505b50600081511415611bcb576040517f08c379a0000000000000000000000000000000000000000000000000000000008152600401611bc290613084565b60405180910390fd5b805181602001fd5b63150b7a0260e01b7bffffffffffffffffffffffffffffffffffffffffffffffffffffffff1916817bffffffffffffffffffffffffffffffffffffffffffffffffffffffff191614915050611c28565b600190505b949350505050565b600073ffffffffffffffffffffffffffffffffffffffff168273ffffffffffffffffffffffffffffffffffffffff161415611ca0576040517f08c379a0000000000000000000000000000000000000000000000000000000008152600401611c97906132ad565b60405180910390fd5b611ca981611263565b15611ce9576040517f08c379a0000000000000000000000000000000000000000000000000000000008152600401611ce090613319565b60405180910390fd5b611cf560008383611a34565b6001600360008473ffffffffffffffffffffffffffffffffffffffff1673ffffffffffffffffffffffffffffffffffffffff1681526020019081526020016000206000828254611d459190612c16565b92505081905550816002600083815260200190815260200160002060006101000a81548173ffffffffffffffffffffffffffffffffffffffff021916908373ffffffffffffffffffffffffffffffffffffffff160217905550808273ffffffffffffffffffffffffffffffffffffffff16600073ffffffffffffffffffffffffffffffffffffffff167fddf252ad1be2c89b69c2b068fc378daa952ba7f163c4a11628f55a4df523b3ef60405160405180910390a4611e0660008383611a39565b5050565b6000808273ffffffffffffffffffffffffffffffffffffffff163b119050919050565b60405180610100016040528060608152602001600073ffffffffffffffffffffffffffffffffffffffff1681526020016000815260200160008152602001600081526020016000815260200160008152602001600081525090565b6000604051905090565b600080fd5b600080fd5b60007fffffffff0000000000000000000000000000000000000000000000000000000082169050919050565b611ed181611e9c565b8114611edc57600080fd5b50565b600081359050611eee81611ec8565b92915050565b600060208284031215611f0a57611f09611e92565b5b6000611f1884828501611edf565b91505092915050565b60008115159050919050565b611f3681611f21565b82525050565b6000602082019050611f516000830184611f2d565b92915050565b600081519050919050565b600082825260208201905092915050565b60005b83811015611f91578082015181840152602081019050611f76565b83811115611fa0576000848401525b50505050565b6000601f19601f8301169050919050565b6000611fc282611f57565b611fcc8185611f62565b9350611fdc818560208601611f73565b611fe581611fa6565b840191505092915050565b6000602082019050818103600083015261200a8184611fb7565b905092915050565b6000819050919050565b61202581612012565b811461203057600080fd5b50565b6000813590506120428161201c565b92915050565b60006020828403121561205e5761205d611e92565b5b600061206c84828501612033565b91505092915050565b600073ffffffffffffffffffffffffffffffffffffffff82169050919050565b60006120a082612075565b9050919050565b6120b081612095565b82525050565b60006020820190506120cb60008301846120a7565b92915050565b6120da81612095565b81146120e557600080fd5b50565b6000813590506120f7816120d1565b92915050565b6000806040838503121561211457612113611e92565b5b6000612122858286016120e8565b925050602061213385828601612033565b9150509250929050565b61214681612012565b82525050565b6000602082019050612161600083018461213d565b92915050565b6000806000606084860312156121805761217f611e92565b5b600061218e868287016120e8565b935050602061219f868287016120e8565b92505060406121b086828701612033565b9150509250925092565b6000819050919050565b6121cd816121ba565b82525050565b60006101008201905081810360008301526121ee818b611fb7565b90506121fd602083018a6120a7565b61220a60408301896121c4565b61221760608301886121c4565b61222460808301876121c4565b61223160a08301866121c4565b61223e60c08301856121c4565b61224b60e08301846121c4565b9998505050505050505050565b60006020828403121561226e5761226d611e92565b5b600061227c848285016120e8565b91505092915050565b600082825260208201905092915050565b60006122a182611f57565b6122ab8185612285565b93506122bb818560208601611f73565b6122c481611fa6565b840191505092915050565b6122d881612095565b82525050565b6122e7816121ba565b82525050565b600061010083016000830151848203600086015261230b8282612296565b915050602083015161232060208601826122cf565b50604083015161233360408601826122de565b50606083015161234660608601826122de565b50608083015161235960808601826122de565b5060a083015161236c60a08601826122de565b5060c083015161237f60c08601826122de565b5060e083015161239260e08601826122de565b508091505092915050565b600060208201905081810360008301526123b781846122ed565b905092915050565b6123c881611f21565b81146123d357600080fd5b50565b6000813590506123e5816123bf565b92915050565b6000806040838503121561240257612401611e92565b5b6000612410858286016120e8565b9250506020612421858286016123d6565b9150509250929050565b600080fd5b600080fd5b7f4e487b7100000000000000000000000000000000000000000000000000000000600052604160045260246000fd5b61246d82611fa6565b810181811067ffffffffffffffff8211171561248c5761248b612435565b5b80604052505050565b600061249f611e88565b90506124ab8282612464565b919050565b600067ffffffffffffffff8211156124cb576124ca612435565b5b6124d482611fa6565b9050602081019050919050565b82818337600083830152505050565b60006125036124fe846124b0565b612495565b90508281526020810184848401111561251f5761251e612430565b5b61252a8482856124e1565b509392505050565b600082601f8301126125475761254661242b565b5b81356125578482602086016124f0565b91505092915050565b6000806000806080858703121561257a57612579611e92565b5b6000612588878288016120e8565b9450506020612599878288016120e8565b93505060406125aa87828801612033565b925050606085013567ffffffffffffffff8111156125cb576125ca611e97565b5b6125d787828801612532565b91505092959194509250565b600081519050919050565b600082825260208201905092915050565b6000819050602082019050919050565b600061010083016000830151848203600086015261262d8282612296565b915050602083015161264260208601826122cf565b50604083015161265560408601826122de565b50606083015161266860608601826122de565b50608083015161267b60808601826122de565b5060a083015161268e60a08601826122de565b5060c08301516126a160c08601826122de565b5060e08301516126b460e08601826122de565b508091505092915050565b60006126cb838361260f565b905092915050565b6000602082019050919050565b60006126eb826125e3565b6126f581856125ee565b935083602082028501612707856125ff565b8060005b85811015612743578484038952815161272485826126bf565b945061272f836126d3565b925060208a0199505060018101905061270b565b50829750879550505050505092915050565b6000602082019050818103600083015261276f81846126e0565b905092915050565b6000806040838503121561278e5761278d611e92565b5b600061279c858286016120e8565b92505060206127ad858286016120e8565b9150509250929050565b7f4e487b7100000000000000000000000000000000000000000000000000000000600052602260045260246000fd5b600060028204905060018216806127fe57607f821691505b60208210811415612812576128116127b7565b5b50919050565b7f4552433732313a20617070726f76656420717565727920666f72206e6f6e657860008201527f697374656e7420746f6b656e0000000000000000000000000000000000000000602082015250565b6000612874602c83611f62565b915061287f82612818565b604082019050919050565b600060208201905081810360008301526128a381612867565b9050919050565b7f4552433732313a20617070726f76616c20746f2063757272656e74206f776e6560008201527f7200000000000000000000000000000000000000000000000000000000000000602082015250565b6000612906602183611f62565b9150612911826128aa565b604082019050919050565b60006020820190508181036000830152612935816128f9565b9050919050565b7f4552433732313a20617070726f76652063616c6c6572206973206e6f74206f7760008201527f6e6572206e6f7220617070726f76656420666f7220616c6c0000000000000000602082015250565b6000612998603883611f62565b91506129a38261293c565b604082019050919050565b600060208201905081810360008301526129c78161298b565b9050919050565b7f4552433732313a207472616e736665722063616c6c6572206973206e6f74206f60008201527f776e6572206e6f7420617070726f766564000000000000000000000000000000602082015250565b6000612a2a603183611f62565b9150612a35826129ce565b604082019050919050565b60006020820190508181036000830152612a5981612a1d565b9050919050565b7f4e487b7100000000000000000000000000000000000000000000000000000000600052601160045260246000fd5b6000612a9a82612012565b9150612aa583612012565b925082821015612ab857612ab7612a60565b5b828203905092915050565b7f4e487b7100000000000000000000000000000000000000000000000000000000600052603260045260246000fd5b7f4552433732313a206f776e657220717565727920666f72206e6f6e657869737460008201527f656e7420746f6b656e0000000000000000000000000000000000000000000000602082015250565b6000612b4e602983611f62565b9150612b5982612af2565b604082019050919050565b60006020820190508181036000830152612b7d81612b41565b9050919050565b7f4552433732313a2062616c616e636520717565727920666f7220746865207a6560008201527f726f206164647265737300000000000000000000000000000000000000000000602082015250565b6000612be0602a83611f62565b9150612beb82612b84565b604082019050919050565b60006020820190508181036000830152612c0f81612bd3565b9050919050565b6000612c2182612012565b9150612c2c83612012565b9250827fffffffffffffffffffffffffffffffffffffffffffffffffffffffffffffffff03821115612c6157612c60612a60565b5b828201905092915050565b7f4552433732313a207472616e736665722063616c6c6572206973206e6f74206f60008201527f776e6572206e6f7220617070726f766564000000000000000000000000000000602082015250565b6000612cc8603183611f62565b9150612cd382612c6c565b604082019050919050565b60006020820190508181036000830152612cf781612cbb565b9050919050565b7f4552433732314d657461646174613a2055524920717565727920666f72206e6f60008201527f6e6578697374656e7420746f6b656e0000000000000000000000000000000000602082015250565b6000612d5a602f83611f62565b9150612d6582612cfe565b604082019050919050565b60006020820190508181036000830152612d8981612d4d565b9050919050565b600081905092915050565b6000612da682611f57565b612db08185612d90565b9350612dc0818560208601611f73565b80840191505092915050565b6000612dd88285612d9b565b9150612de48284612d9b565b91508190509392505050565b7f4552433732313a206f70657261746f7220717565727920666f72206e6f6e657860008201527f697374656e7420746f6b656e0000000000000000000000000000000000000000602082015250565b6000612e4c602c83611f62565b9150612e5782612df0565b604082019050919050565b60006020820190508181036000830152612e7b81612e3f565b9050919050565b7f4552433732313a207472616e736665722066726f6d20696e636f72726563742060008201527f6f776e6572000000000000000000000000000000000000000000000000000000602082015250565b6000612ede602583611f62565b9150612ee982612e82565b604082019050919050565b60006020820190508181036000830152612f0d81612ed1565b9050919050565b7f4552433732313a207472616e7366657220746f20746865207a65726f2061646460008201527f7265737300000000000000000000000000000000000000000000000000000000602082015250565b6000612f70602483611f62565b9150612f7b82612f14565b604082019050919050565b60006020820190508181036000830152612f9f81612f63565b9050919050565b7f4552433732313a20617070726f766520746f2063616c6c657200000000000000600082015250565b6000612fdc601983611f62565b9150612fe782612fa6565b602082019050919050565b6000602082019050818103600083015261300b81612fcf565b9050919050565b7f4552433732313a207472616e7366657220746f206e6f6e20455243373231526560008201527f63656976657220696d706c656d656e7465720000000000000000000000000000602082015250565b600061306e603283611f62565b915061307982613012565b604082019050919050565b6000602082019050818103600083015261309d81613061565b9050919050565b60006130af82612012565b91507fffffffffffffffffffffffffffffffffffffffffffffffffffffffffffffffff8214156130e2576130e1612a60565b5b600182019050919050565b7f4e487b7100000000000000000000000000000000000000000000000000000000600052601260045260246000fd5b600061312782612012565b915061313283612012565b925082613142576131416130ed565b5b828204905092915050565b600061315882612012565b915061316383612012565b925082613173576131726130ed565b5b828206905092915050565b600081519050919050565b600082825260208201905092915050565b60006131a58261317e565b6131af8185613189565b93506131bf818560208601611f73565b6131c881611fa6565b840191505092915050565b60006080820190506131e860008301876120a7565b6131f560208301866120a7565b613202604083018561213d565b8181036060830152613214818461319a565b905095945050505050565b60008151905061322e81611ec8565b92915050565b60006020828403121561324a57613249611e92565b5b60006132588482850161321f565b91505092915050565b7f4552433732313a206d696e7420746f20746865207a65726f2061646472657373600082015250565b6000613297602083611f62565b91506132a282613261565b602082019050919050565b600060208201905081810360008301526132c68161328a565b9050919050565b7f4552433732313a20746f6b656e20616c7265616479206d696e74656400000000600082015250565b6000613303601c83611f62565b915061330e826132cd565b602082019050919050565b60006020820190508181036000830152613332816132f6565b905091905056fea26469706673582212208b48c8939f25c257b53a2c8efdc0768ab6752e5fbd4835feeebe81edf95324ce64736f6c63430008090033",
  "immutableReferences": {},
  "source": "// SPDX-License-Identifier: MIT\r\npragma solidity ^0.8.0;\r\n\r\nimport \"@openzeppelin/contracts/token/ERC721/ERC721.sol\";\r\n\r\ncontract Land is ERC721 {\r\n\r\n  uint256 public initialCost = 1 ether;\r\n  uint256 public maxSupply = 5;\r\n  uint256 public totalSupply = 0;\r\n\r\n  struct Building {\r\n    string name;\r\n    address owner;\r\n\r\n    int256 posX;\r\n    int256 posY;\r\n    int256 posZ;\r\n\r\n    int256 sizeX;\r\n    int256 sizeY;\r\n    int256 sizeZ;\r\n  }\r\n\r\n  Building[] public buildings;\r\n\r\n  constructor(string memory _name, string memory _symbol, uint256 _cost) ERC721(_name, _symbol) {\r\n    initialCost = _cost;\r\n\r\n    buildings.push(\r\n      Building(\r\n        \"Village\", \r\n        address(0x0),\r\n        0, 0, 0,\r\n        10, 10, 10\r\n      )\r\n    );\r\n\r\n    buildings.push(\r\n      Building(\r\n        \"Park\", \r\n        address(0x0),\r\n        0, 10, 0,\r\n        10, 5, 3\r\n      )\r\n    );\r\n\r\n    buildings.push(\r\n      Building(\r\n        \"City\", \r\n        address(0x0),\r\n        0, -10, 0,\r\n        10, 5, 3\r\n      )\r\n    );\r\n\r\n    buildings.push(\r\n      Building(\r\n        \"Events Plaza\", \r\n        address(0x0),\r\n        10, 0, 0,\r\n        5, 25, 5\r\n      )\r\n    );\r\n\r\n    buildings.push(\r\n      Building(\r\n        \"Campus\", \r\n        address(0x0),\r\n        -10, 0, 0,\r\n        5, 25, 5\r\n      )\r\n    );\r\n  }\r\n\r\n  function mint(uint256 _id) public payable {\r\n    uint256 supply = totalSupply;\r\n\r\n    require(supply <= maxSupply);\r\n\r\n    // nobody owns the building to mint\r\n    require(buildings[_id - 1].owner == address(0x0));\r\n\r\n    // verify correct price\r\n    require(msg.value >= 1 ether);\r\n\r\n    // mint process\r\n    buildings[_id - 1].owner = msg.sender;\r\n    totalSupply = totalSupply + 1;\r\n    _safeMint(msg.sender, _id);\r\n  }\r\n\r\n  function transferFrom(\r\n    address from,\r\n    address to,\r\n    uint256 tokenId\r\n  ) public override {\r\n    // if owner approve this transaction or this is actual owner of nft we want to send\r\n    require(\r\n      _isApprovedOrOwner(_msgSender(), tokenId),\r\n      \"ERC721: transfer caller is not owner not approved\"\r\n    );\r\n\r\n    buildings[tokenId - 1].owner = to;\r\n    _transfer(from, to, tokenId);\r\n  }\r\n\r\n  function getBuildings() public view returns(Building[] memory) {\r\n    return buildings;\r\n  }\r\n\r\n  function getBuilding(uint256 _buildingId) public view returns (Building memory) {\r\n    return buildings[_buildingId - 1];\r\n  }\r\n}",
  "sourcePath": "D:\\Projects\\the_nights\\src\\contracts\\Land.sol",
  "compiler": {
    "name": "solc",
    "version": "0.8.9+commit.e5eed63a.Emscripten.clang"
  },
  "schemaVersion": "3.4.5",
  "updatedAt": "2022-04-23T03:59:27.460Z",
  "networkType": "ethereum",
  "devdoc": {
    "kind": "dev",
    "methods": {
      "approve(address,uint256)": {
        "details": "See {IERC721-approve}."
      },
      "balanceOf(address)": {
        "details": "See {IERC721-balanceOf}."
      },
      "getApproved(uint256)": {
        "details": "See {IERC721-getApproved}."
      },
      "isApprovedForAll(address,address)": {
        "details": "See {IERC721-isApprovedForAll}."
      },
      "name()": {
        "details": "See {IERC721Metadata-name}."
      },
      "ownerOf(uint256)": {
        "details": "See {IERC721-ownerOf}."
      },
      "safeTransferFrom(address,address,uint256)": {
        "details": "See {IERC721-safeTransferFrom}."
      },
      "safeTransferFrom(address,address,uint256,bytes)": {
        "details": "See {IERC721-safeTransferFrom}."
      },
      "setApprovalForAll(address,bool)": {
        "details": "See {IERC721-setApprovalForAll}."
      },
      "supportsInterface(bytes4)": {
        "details": "See {IERC165-supportsInterface}."
      },
      "symbol()": {
        "details": "See {IERC721Metadata-symbol}."
      },
      "tokenURI(uint256)": {
        "details": "See {IERC721Metadata-tokenURI}."
      },
      "transferFrom(address,address,uint256)": {
        "details": "See {IERC721-transferFrom}."
      }
    },
    "version": 1
  },
  "userdoc": {
    "kind": "user",
    "methods": {},
    "version": 1
  }
}